{
	"solidity learning/contracts/calculator.sol": {
		"calculator": {
			"abi": [
				{
					"inputs": [
						{
							"internalType": "uint8",
							"name": "num",
							"type": "uint8"
						}
					],
					"name": "add",
					"outputs": [],
					"stateMutability": "nonpayable",
					"type": "function"
				},
				{
					"inputs": [
						{
							"internalType": "uint8",
							"name": "num",
							"type": "uint8"
						}
					],
					"name": "div",
					"outputs": [],
					"stateMutability": "nonpayable",
					"type": "function"
				},
				{
					"inputs": [],
					"name": "get",
					"outputs": [
						{
							"internalType": "uint8",
							"name": "",
							"type": "uint8"
						}
					],
					"stateMutability": "view",
					"type": "function"
				},
				{
					"inputs": [
						{
							"internalType": "uint8",
							"name": "num",
							"type": "uint8"
						}
					],
					"name": "sub",
					"outputs": [],
					"stateMutability": "nonpayable",
					"type": "function"
				}
			],
			"devdoc": {
				"kind": "dev",
				"methods": {},
				"version": 1
			},
			"evm": {
				"assembly": "    /* \"solidity learning/contracts/calculator.sol\":61:394  contract calculator{... */\n  mstore(0x40, 0x80)\n    /* \"solidity learning/contracts/calculator.sol\":100:101  0 */\n  0x00\n    /* \"solidity learning/contracts/calculator.sol\":87:101  uint8 result=0 */\n  0x00\n  exp(0x0100, 0x00)\n  dup2\n  sload\n  dup2\n  0xff\n  mul\n  not\n  and\n  swap1\n  dup4\n  0xff\n  and\n  mul\n  or\n  swap1\n  sstore\n  pop\n    /* \"solidity learning/contracts/calculator.sol\":61:394  contract calculator{... */\n  callvalue\n  dup1\n  iszero\n  tag_1\n  jumpi\n  revert(0x00, 0x00)\ntag_1:\n  pop\n  dataSize(sub_0)\n  dup1\n  dataOffset(sub_0)\n  0x00\n  codecopy\n  0x00\n  return\nstop\n\nsub_0: assembly {\n        /* \"solidity learning/contracts/calculator.sol\":61:394  contract calculator{... */\n      mstore(0x40, 0x80)\n      callvalue\n      dup1\n      iszero\n      tag_1\n      jumpi\n      revert(0x00, 0x00)\n    tag_1:\n      pop\n      jumpi(tag_2, lt(calldatasize, 0x04))\n      shr(0xe0, calldataload(0x00))\n      dup1\n      0x02067e6a\n      eq\n      tag_3\n      jumpi\n      dup1\n      0x6d4ce63c\n      eq\n      tag_4\n      jumpi\n      dup1\n      0x7d952ba8\n      eq\n      tag_5\n      jumpi\n      dup1\n      0xfd2a42e6\n      eq\n      tag_6\n      jumpi\n    tag_2:\n      revert(0x00, 0x00)\n        /* \"solidity learning/contracts/calculator.sol\":108:168  function add(uint8 num) public{... */\n    tag_3:\n      tag_7\n      0x04\n      dup1\n      calldatasize\n      sub\n      dup2\n      add\n      swap1\n      tag_8\n      swap2\n      swap1\n      tag_9\n      jump\t// in\n    tag_8:\n      tag_10\n      jump\t// in\n    tag_7:\n      stop\n        /* \"solidity learning/contracts/calculator.sol\":318:391  function get() public view returns(uint8){... */\n    tag_4:\n      tag_11\n      tag_12\n      jump\t// in\n    tag_11:\n      mload(0x40)\n      tag_13\n      swap2\n      swap1\n      tag_14\n      jump\t// in\n    tag_13:\n      mload(0x40)\n      dup1\n      swap2\n      sub\n      swap1\n      return\n        /* \"solidity learning/contracts/calculator.sol\":240:310  function div(uint8 num) public{... */\n    tag_5:\n      tag_15\n      0x04\n      dup1\n      calldatasize\n      sub\n      dup2\n      add\n      swap1\n      tag_16\n      swap2\n      swap1\n      tag_9\n      jump\t// in\n    tag_16:\n      tag_17\n      jump\t// in\n    tag_15:\n      stop\n        /* \"solidity learning/contracts/calculator.sol\":174:234  function sub(uint8 num) public{... */\n    tag_6:\n      tag_18\n      0x04\n      dup1\n      calldatasize\n      sub\n      dup2\n      add\n      swap1\n      tag_19\n      swap2\n      swap1\n      tag_9\n      jump\t// in\n    tag_19:\n      tag_20\n      jump\t// in\n    tag_18:\n      stop\n        /* \"solidity learning/contracts/calculator.sol\":108:168  function add(uint8 num) public{... */\n    tag_10:\n        /* \"solidity learning/contracts/calculator.sol\":157:160  num */\n      dup1\n        /* \"solidity learning/contracts/calculator.sol\":149:155  result */\n      0x00\n      0x00\n        /* \"solidity learning/contracts/calculator.sol\":149:160  result+=num */\n      dup3\n      dup3\n      dup3\n      swap1\n      sload\n      swap1\n      0x0100\n      exp\n      swap1\n      div\n      0xff\n      and\n      tag_22\n      swap2\n      swap1\n      tag_23\n      jump\t// in\n    tag_22:\n      swap3\n      pop\n      0x0100\n      exp\n      dup2\n      sload\n      dup2\n      0xff\n      mul\n      not\n      and\n      swap1\n      dup4\n      0xff\n      and\n      mul\n      or\n      swap1\n      sstore\n      pop\n        /* \"solidity learning/contracts/calculator.sol\":108:168  function add(uint8 num) public{... */\n      pop\n      jump\t// out\n        /* \"solidity learning/contracts/calculator.sol\":318:391  function get() public view returns(uint8){... */\n    tag_12:\n        /* \"solidity learning/contracts/calculator.sol\":353:358  uint8 */\n      0x00\n        /* \"solidity learning/contracts/calculator.sol\":377:383  result */\n      0x00\n      0x00\n      swap1\n      sload\n      swap1\n      0x0100\n      exp\n      swap1\n      div\n      0xff\n      and\n        /* \"solidity learning/contracts/calculator.sol\":370:383  return result */\n      swap1\n      pop\n        /* \"solidity learning/contracts/calculator.sol\":318:391  function get() public view returns(uint8){... */\n      swap1\n      jump\t// out\n        /* \"solidity learning/contracts/calculator.sol\":240:310  function div(uint8 num) public{... */\n    tag_17:\n        /* \"solidity learning/contracts/calculator.sol\":299:302  num */\n      dup1\n        /* \"solidity learning/contracts/calculator.sol\":290:296  result */\n      0x00\n      0x00\n      swap1\n      sload\n      swap1\n      0x0100\n      exp\n      swap1\n      div\n      0xff\n      and\n        /* \"solidity learning/contracts/calculator.sol\":290:302  result / num */\n      tag_26\n      swap2\n      swap1\n      tag_27\n      jump\t// in\n    tag_26:\n        /* \"solidity learning/contracts/calculator.sol\":281:287  result */\n      0x00\n      0x00\n        /* \"solidity learning/contracts/calculator.sol\":281:302  result = result / num */\n      0x0100\n      exp\n      dup2\n      sload\n      dup2\n      0xff\n      mul\n      not\n      and\n      swap1\n      dup4\n      0xff\n      and\n      mul\n      or\n      swap1\n      sstore\n      pop\n        /* \"solidity learning/contracts/calculator.sol\":240:310  function div(uint8 num) public{... */\n      pop\n      jump\t// out\n        /* \"solidity learning/contracts/calculator.sol\":174:234  function sub(uint8 num) public{... */\n    tag_20:\n        /* \"solidity learning/contracts/calculator.sol\":223:226  num */\n      dup1\n        /* \"solidity learning/contracts/calculator.sol\":215:221  result */\n      0x00\n      0x00\n        /* \"solidity learning/contracts/calculator.sol\":215:226  result-=num */\n      dup3\n      dup3\n      dup3\n      swap1\n      sload\n      swap1\n      0x0100\n      exp\n      swap1\n      div\n      0xff\n      and\n      tag_29\n      swap2\n      swap1\n      tag_30\n      jump\t// in\n    tag_29:\n      swap3\n      pop\n      0x0100\n      exp\n      dup2\n      sload\n      dup2\n      0xff\n      mul\n      not\n      and\n      swap1\n      dup4\n      0xff\n      and\n      mul\n      or\n      swap1\n      sstore\n      pop\n        /* \"solidity learning/contracts/calculator.sol\":174:234  function sub(uint8 num) public{... */\n      pop\n      jump\t// out\n        /* \"#utility.yul\":88:205   */\n    tag_32:\n        /* \"#utility.yul\":197:198   */\n      0x00\n        /* \"#utility.yul\":194:195   */\n      0x00\n        /* \"#utility.yul\":187:199   */\n      revert\n        /* \"#utility.yul\":334:420   */\n    tag_34:\n        /* \"#utility.yul\":369:376   */\n      0x00\n        /* \"#utility.yul\":409:413   */\n      0xff\n        /* \"#utility.yul\":402:407   */\n      dup3\n        /* \"#utility.yul\":398:414   */\n      and\n        /* \"#utility.yul\":387:414   */\n      swap1\n      pop\n        /* \"#utility.yul\":334:420   */\n      swap2\n      swap1\n      pop\n      jump\t// out\n        /* \"#utility.yul\":426:544   */\n    tag_35:\n        /* \"#utility.yul\":497:519   */\n      tag_46\n        /* \"#utility.yul\":513:518   */\n      dup2\n        /* \"#utility.yul\":497:519   */\n      tag_34\n      jump\t// in\n    tag_46:\n        /* \"#utility.yul\":490:495   */\n      dup2\n        /* \"#utility.yul\":487:520   */\n      eq\n        /* \"#utility.yul\":477:538   */\n      tag_47\n      jumpi\n        /* \"#utility.yul\":534:535   */\n      0x00\n        /* \"#utility.yul\":531:532   */\n      0x00\n        /* \"#utility.yul\":524:536   */\n      revert\n        /* \"#utility.yul\":477:538   */\n    tag_47:\n        /* \"#utility.yul\":426:544   */\n      pop\n      jump\t// out\n        /* \"#utility.yul\":550:685   */\n    tag_36:\n        /* \"#utility.yul\":594:599   */\n      0x00\n        /* \"#utility.yul\":632:638   */\n      dup2\n        /* \"#utility.yul\":619:639   */\n      calldataload\n        /* \"#utility.yul\":610:639   */\n      swap1\n      pop\n        /* \"#utility.yul\":648:679   */\n      tag_49\n        /* \"#utility.yul\":673:678   */\n      dup2\n        /* \"#utility.yul\":648:679   */\n      tag_35\n      jump\t// in\n    tag_49:\n        /* \"#utility.yul\":550:685   */\n      swap3\n      swap2\n      pop\n      pop\n      jump\t// out\n        /* \"#utility.yul\":691:1016   */\n    tag_9:\n        /* \"#utility.yul\":748:754   */\n      0x00\n        /* \"#utility.yul\":797:799   */\n      0x20\n        /* \"#utility.yul\":785:794   */\n      dup3\n        /* \"#utility.yul\":776:783   */\n      dup5\n        /* \"#utility.yul\":772:795   */\n      sub\n        /* \"#utility.yul\":768:800   */\n      slt\n        /* \"#utility.yul\":765:884   */\n      iszero\n      tag_51\n      jumpi\n        /* \"#utility.yul\":803:882   */\n      tag_52\n      tag_32\n      jump\t// in\n    tag_52:\n        /* \"#utility.yul\":765:884   */\n    tag_51:\n        /* \"#utility.yul\":923:924   */\n      0x00\n        /* \"#utility.yul\":948:999   */\n      tag_53\n        /* \"#utility.yul\":991:998   */\n      dup5\n        /* \"#utility.yul\":982:988   */\n      dup3\n        /* \"#utility.yul\":971:980   */\n      dup6\n        /* \"#utility.yul\":967:989   */\n      add\n        /* \"#utility.yul\":948:999   */\n      tag_36\n      jump\t// in\n    tag_53:\n        /* \"#utility.yul\":938:999   */\n      swap2\n      pop\n        /* \"#utility.yul\":894:1009   */\n      pop\n        /* \"#utility.yul\":691:1016   */\n      swap3\n      swap2\n      pop\n      pop\n      jump\t// out\n        /* \"#utility.yul\":1022:1134   */\n    tag_37:\n        /* \"#utility.yul\":1105:1127   */\n      tag_55\n        /* \"#utility.yul\":1121:1126   */\n      dup2\n        /* \"#utility.yul\":1105:1127   */\n      tag_34\n      jump\t// in\n    tag_55:\n        /* \"#utility.yul\":1100:1103   */\n      dup3\n        /* \"#utility.yul\":1093:1128   */\n      mstore\n        /* \"#utility.yul\":1022:1134   */\n      pop\n      pop\n      jump\t// out\n        /* \"#utility.yul\":1140:1354   */\n    tag_14:\n        /* \"#utility.yul\":1229:1233   */\n      0x00\n        /* \"#utility.yul\":1267:1269   */\n      0x20\n        /* \"#utility.yul\":1256:1265   */\n      dup3\n        /* \"#utility.yul\":1252:1270   */\n      add\n        /* \"#utility.yul\":1244:1270   */\n      swap1\n      pop\n        /* \"#utility.yul\":1280:1347   */\n      tag_57\n        /* \"#utility.yul\":1344:1345   */\n      0x00\n        /* \"#utility.yul\":1333:1342   */\n      dup4\n        /* \"#utility.yul\":1329:1346   */\n      add\n        /* \"#utility.yul\":1320:1326   */\n      dup5\n        /* \"#utility.yul\":1280:1347   */\n      tag_37\n      jump\t// in\n    tag_57:\n        /* \"#utility.yul\":1140:1354   */\n      swap3\n      swap2\n      pop\n      pop\n      jump\t// out\n        /* \"#utility.yul\":1360:1540   */\n    tag_38:\n        /* \"#utility.yul\":1408:1485   */\n      0x4e487b7100000000000000000000000000000000000000000000000000000000\n        /* \"#utility.yul\":1405:1406   */\n      0x00\n        /* \"#utility.yul\":1398:1486   */\n      mstore\n        /* \"#utility.yul\":1505:1509   */\n      0x11\n        /* \"#utility.yul\":1502:1503   */\n      0x04\n        /* \"#utility.yul\":1495:1510   */\n      mstore\n        /* \"#utility.yul\":1529:1533   */\n      0x24\n        /* \"#utility.yul\":1526:1527   */\n      0x00\n        /* \"#utility.yul\":1519:1534   */\n      revert\n        /* \"#utility.yul\":1546:1734   */\n    tag_23:\n        /* \"#utility.yul\":1584:1587   */\n      0x00\n        /* \"#utility.yul\":1603:1621   */\n      tag_60\n        /* \"#utility.yul\":1619:1620   */\n      dup3\n        /* \"#utility.yul\":1603:1621   */\n      tag_34\n      jump\t// in\n    tag_60:\n        /* \"#utility.yul\":1598:1621   */\n      swap2\n      pop\n        /* \"#utility.yul\":1635:1653   */\n      tag_61\n        /* \"#utility.yul\":1651:1652   */\n      dup4\n        /* \"#utility.yul\":1635:1653   */\n      tag_34\n      jump\t// in\n    tag_61:\n        /* \"#utility.yul\":1630:1653   */\n      swap3\n      pop\n        /* \"#utility.yul\":1676:1677   */\n      dup3\n        /* \"#utility.yul\":1673:1674   */\n      dup3\n        /* \"#utility.yul\":1669:1678   */\n      add\n        /* \"#utility.yul\":1662:1678   */\n      swap1\n      pop\n        /* \"#utility.yul\":1699:1703   */\n      0xff\n        /* \"#utility.yul\":1694:1697   */\n      dup2\n        /* \"#utility.yul\":1691:1704   */\n      gt\n        /* \"#utility.yul\":1688:1727   */\n      iszero\n      tag_62\n      jumpi\n        /* \"#utility.yul\":1707:1725   */\n      tag_63\n      tag_38\n      jump\t// in\n    tag_63:\n        /* \"#utility.yul\":1688:1727   */\n    tag_62:\n        /* \"#utility.yul\":1546:1734   */\n      swap3\n      swap2\n      pop\n      pop\n      jump\t// out\n        /* \"#utility.yul\":1740:1920   */\n    tag_39:\n        /* \"#utility.yul\":1788:1865   */\n      0x4e487b7100000000000000000000000000000000000000000000000000000000\n        /* \"#utility.yul\":1785:1786   */\n      0x00\n        /* \"#utility.yul\":1778:1866   */\n      mstore\n        /* \"#utility.yul\":1885:1889   */\n      0x12\n        /* \"#utility.yul\":1882:1883   */\n      0x04\n        /* \"#utility.yul\":1875:1890   */\n      mstore\n        /* \"#utility.yul\":1909:1913   */\n      0x24\n        /* \"#utility.yul\":1906:1907   */\n      0x00\n        /* \"#utility.yul\":1899:1914   */\n      revert\n        /* \"#utility.yul\":1926:2105   */\n    tag_27:\n        /* \"#utility.yul\":1964:1965   */\n      0x00\n        /* \"#utility.yul\":1981:1999   */\n      tag_66\n        /* \"#utility.yul\":1997:1998   */\n      dup3\n        /* \"#utility.yul\":1981:1999   */\n      tag_34\n      jump\t// in\n    tag_66:\n        /* \"#utility.yul\":1976:1999   */\n      swap2\n      pop\n        /* \"#utility.yul\":2013:2031   */\n      tag_67\n        /* \"#utility.yul\":2029:2030   */\n      dup4\n        /* \"#utility.yul\":2013:2031   */\n      tag_34\n      jump\t// in\n    tag_67:\n        /* \"#utility.yul\":2008:2031   */\n      swap3\n      pop\n        /* \"#utility.yul\":2050:2051   */\n      dup3\n        /* \"#utility.yul\":2040:2075   */\n      tag_68\n      jumpi\n        /* \"#utility.yul\":2055:2073   */\n      tag_69\n      tag_39\n      jump\t// in\n    tag_69:\n        /* \"#utility.yul\":2040:2075   */\n    tag_68:\n        /* \"#utility.yul\":2097:2098   */\n      dup3\n        /* \"#utility.yul\":2094:2095   */\n      dup3\n        /* \"#utility.yul\":2090:2099   */\n      div\n        /* \"#utility.yul\":2085:2099   */\n      swap1\n      pop\n        /* \"#utility.yul\":1926:2105   */\n      swap3\n      swap2\n      pop\n      pop\n      jump\t// out\n        /* \"#utility.yul\":2111:2302   */\n    tag_30:\n        /* \"#utility.yul\":2149:2153   */\n      0x00\n        /* \"#utility.yul\":2169:2187   */\n      tag_71\n        /* \"#utility.yul\":2185:2186   */\n      dup3\n        /* \"#utility.yul\":2169:2187   */\n      tag_34\n      jump\t// in\n    tag_71:\n        /* \"#utility.yul\":2164:2187   */\n      swap2\n      pop\n        /* \"#utility.yul\":2201:2219   */\n      tag_72\n        /* \"#utility.yul\":2217:2218   */\n      dup4\n        /* \"#utility.yul\":2201:2219   */\n      tag_34\n      jump\t// in\n    tag_72:\n        /* \"#utility.yul\":2196:2219   */\n      swap3\n      pop\n        /* \"#utility.yul\":2243:2244   */\n      dup3\n        /* \"#utility.yul\":2240:2241   */\n      dup3\n        /* \"#utility.yul\":2236:2245   */\n      sub\n        /* \"#utility.yul\":2228:2245   */\n      swap1\n      pop\n        /* \"#utility.yul\":2267:2271   */\n      0xff\n        /* \"#utility.yul\":2261:2265   */\n      dup2\n        /* \"#utility.yul\":2258:2272   */\n      gt\n        /* \"#utility.yul\":2255:2295   */\n      iszero\n      tag_73\n      jumpi\n        /* \"#utility.yul\":2275:2293   */\n      tag_74\n      tag_38\n      jump\t// in\n    tag_74:\n        /* \"#utility.yul\":2255:2295   */\n    tag_73:\n        /* \"#utility.yul\":2111:2302   */\n      swap3\n      swap2\n      pop\n      pop\n      jump\t// out\n\n    auxdata: 0xa26469706673582212202d7cd34892276539e8c8c9ef455140bfcb210d0479c7a4fdb2e487b9a20733ca64736f6c634300081e0033\n}\n",
				"bytecode": {
					"linkReferences": {},
					"object": "60806040525f5f5f6101000a81548160ff021916908360ff1602179055503480156027575f5ffd5b5061032b806100355f395ff3fe608060405234801561000f575f5ffd5b506004361061004a575f3560e01c806302067e6a1461004e5780636d4ce63c1461006a5780637d952ba814610088578063fd2a42e6146100a4575b5f5ffd5b610068600480360381019061006391906101b0565b6100c0565b005b6100726100f7565b60405161007f91906101ea565b60405180910390f35b6100a2600480360381019061009d91906101b0565b61010b565b005b6100be60048036038101906100b991906101b0565b61013f565b005b805f5f8282829054906101000a900460ff166100dc9190610230565b92506101000a81548160ff021916908360ff16021790555050565b5f5f5f9054906101000a900460ff16905090565b805f5f9054906101000a900460ff166101249190610291565b5f5f6101000a81548160ff021916908360ff16021790555050565b805f5f8282829054906101000a900460ff1661015b91906102c1565b92506101000a81548160ff021916908360ff16021790555050565b5f5ffd5b5f60ff82169050919050565b61018f8161017a565b8114610199575f5ffd5b50565b5f813590506101aa81610186565b92915050565b5f602082840312156101c5576101c4610176565b5b5f6101d28482850161019c565b91505092915050565b6101e48161017a565b82525050565b5f6020820190506101fd5f8301846101db565b92915050565b7f4e487b71000000000000000000000000000000000000000000000000000000005f52601160045260245ffd5b5f61023a8261017a565b91506102458361017a565b9250828201905060ff81111561025e5761025d610203565b5b92915050565b7f4e487b71000000000000000000000000000000000000000000000000000000005f52601260045260245ffd5b5f61029b8261017a565b91506102a68361017a565b9250826102b6576102b5610264565b5b828204905092915050565b5f6102cb8261017a565b91506102d68361017a565b9250828203905060ff8111156102ef576102ee610203565b5b9291505056fea26469706673582212202d7cd34892276539e8c8c9ef455140bfcb210d0479c7a4fdb2e487b9a20733ca64736f6c634300081e0033",
					"opcodes": "PUSH1 0x80 PUSH1 0x40 MSTORE PUSH0 PUSH0 PUSH0 PUSH2 0x100 EXP DUP2 SLOAD DUP2 PUSH1 0xFF MUL NOT AND SWAP1 DUP4 PUSH1 0xFF AND MUL OR SWAP1 SSTORE POP CALLVALUE DUP1 ISZERO PUSH1 0x27 JUMPI PUSH0 PUSH0 REVERT JUMPDEST POP PUSH2 0x32B DUP1 PUSH2 0x35 PUSH0 CODECOPY PUSH0 RETURN INVALID PUSH1 0x80 PUSH1 0x40 MSTORE CALLVALUE DUP1 ISZERO PUSH2 0xF JUMPI PUSH0 PUSH0 REVERT JUMPDEST POP PUSH1 0x4 CALLDATASIZE LT PUSH2 0x4A JUMPI PUSH0 CALLDATALOAD PUSH1 0xE0 SHR DUP1 PUSH4 0x2067E6A EQ PUSH2 0x4E JUMPI DUP1 PUSH4 0x6D4CE63C EQ PUSH2 0x6A JUMPI DUP1 PUSH4 0x7D952BA8 EQ PUSH2 0x88 JUMPI DUP1 PUSH4 0xFD2A42E6 EQ PUSH2 0xA4 JUMPI JUMPDEST PUSH0 PUSH0 REVERT JUMPDEST PUSH2 0x68 PUSH1 0x4 DUP1 CALLDATASIZE SUB DUP2 ADD SWAP1 PUSH2 0x63 SWAP2 SWAP1 PUSH2 0x1B0 JUMP JUMPDEST PUSH2 0xC0 JUMP JUMPDEST STOP JUMPDEST PUSH2 0x72 PUSH2 0xF7 JUMP JUMPDEST PUSH1 0x40 MLOAD PUSH2 0x7F SWAP2 SWAP1 PUSH2 0x1EA JUMP JUMPDEST PUSH1 0x40 MLOAD DUP1 SWAP2 SUB SWAP1 RETURN JUMPDEST PUSH2 0xA2 PUSH1 0x4 DUP1 CALLDATASIZE SUB DUP2 ADD SWAP1 PUSH2 0x9D SWAP2 SWAP1 PUSH2 0x1B0 JUMP JUMPDEST PUSH2 0x10B JUMP JUMPDEST STOP JUMPDEST PUSH2 0xBE PUSH1 0x4 DUP1 CALLDATASIZE SUB DUP2 ADD SWAP1 PUSH2 0xB9 SWAP2 SWAP1 PUSH2 0x1B0 JUMP JUMPDEST PUSH2 0x13F JUMP JUMPDEST STOP JUMPDEST DUP1 PUSH0 PUSH0 DUP3 DUP3 DUP3 SWAP1 SLOAD SWAP1 PUSH2 0x100 EXP SWAP1 DIV PUSH1 0xFF AND PUSH2 0xDC SWAP2 SWAP1 PUSH2 0x230 JUMP JUMPDEST SWAP3 POP PUSH2 0x100 EXP DUP2 SLOAD DUP2 PUSH1 0xFF MUL NOT AND SWAP1 DUP4 PUSH1 0xFF AND MUL OR SWAP1 SSTORE POP POP JUMP JUMPDEST PUSH0 PUSH0 PUSH0 SWAP1 SLOAD SWAP1 PUSH2 0x100 EXP SWAP1 DIV PUSH1 0xFF AND SWAP1 POP SWAP1 JUMP JUMPDEST DUP1 PUSH0 PUSH0 SWAP1 SLOAD SWAP1 PUSH2 0x100 EXP SWAP1 DIV PUSH1 0xFF AND PUSH2 0x124 SWAP2 SWAP1 PUSH2 0x291 JUMP JUMPDEST PUSH0 PUSH0 PUSH2 0x100 EXP DUP2 SLOAD DUP2 PUSH1 0xFF MUL NOT AND SWAP1 DUP4 PUSH1 0xFF AND MUL OR SWAP1 SSTORE POP POP JUMP JUMPDEST DUP1 PUSH0 PUSH0 DUP3 DUP3 DUP3 SWAP1 SLOAD SWAP1 PUSH2 0x100 EXP SWAP1 DIV PUSH1 0xFF AND PUSH2 0x15B SWAP2 SWAP1 PUSH2 0x2C1 JUMP JUMPDEST SWAP3 POP PUSH2 0x100 EXP DUP2 SLOAD DUP2 PUSH1 0xFF MUL NOT AND SWAP1 DUP4 PUSH1 0xFF AND MUL OR SWAP1 SSTORE POP POP JUMP JUMPDEST PUSH0 PUSH0 REVERT JUMPDEST PUSH0 PUSH1 0xFF DUP3 AND SWAP1 POP SWAP2 SWAP1 POP JUMP JUMPDEST PUSH2 0x18F DUP2 PUSH2 0x17A JUMP JUMPDEST DUP2 EQ PUSH2 0x199 JUMPI PUSH0 PUSH0 REVERT JUMPDEST POP JUMP JUMPDEST PUSH0 DUP2 CALLDATALOAD SWAP1 POP PUSH2 0x1AA DUP2 PUSH2 0x186 JUMP JUMPDEST SWAP3 SWAP2 POP POP JUMP JUMPDEST PUSH0 PUSH1 0x20 DUP3 DUP5 SUB SLT ISZERO PUSH2 0x1C5 JUMPI PUSH2 0x1C4 PUSH2 0x176 JUMP JUMPDEST JUMPDEST PUSH0 PUSH2 0x1D2 DUP5 DUP3 DUP6 ADD PUSH2 0x19C JUMP JUMPDEST SWAP2 POP POP SWAP3 SWAP2 POP POP JUMP JUMPDEST PUSH2 0x1E4 DUP2 PUSH2 0x17A JUMP JUMPDEST DUP3 MSTORE POP POP JUMP JUMPDEST PUSH0 PUSH1 0x20 DUP3 ADD SWAP1 POP PUSH2 0x1FD PUSH0 DUP4 ADD DUP5 PUSH2 0x1DB JUMP JUMPDEST SWAP3 SWAP2 POP POP JUMP JUMPDEST PUSH32 0x4E487B7100000000000000000000000000000000000000000000000000000000 PUSH0 MSTORE PUSH1 0x11 PUSH1 0x4 MSTORE PUSH1 0x24 PUSH0 REVERT JUMPDEST PUSH0 PUSH2 0x23A DUP3 PUSH2 0x17A JUMP JUMPDEST SWAP2 POP PUSH2 0x245 DUP4 PUSH2 0x17A JUMP JUMPDEST SWAP3 POP DUP3 DUP3 ADD SWAP1 POP PUSH1 0xFF DUP2 GT ISZERO PUSH2 0x25E JUMPI PUSH2 0x25D PUSH2 0x203 JUMP JUMPDEST JUMPDEST SWAP3 SWAP2 POP POP JUMP JUMPDEST PUSH32 0x4E487B7100000000000000000000000000000000000000000000000000000000 PUSH0 MSTORE PUSH1 0x12 PUSH1 0x4 MSTORE PUSH1 0x24 PUSH0 REVERT JUMPDEST PUSH0 PUSH2 0x29B DUP3 PUSH2 0x17A JUMP JUMPDEST SWAP2 POP PUSH2 0x2A6 DUP4 PUSH2 0x17A JUMP JUMPDEST SWAP3 POP DUP3 PUSH2 0x2B6 JUMPI PUSH2 0x2B5 PUSH2 0x264 JUMP JUMPDEST JUMPDEST DUP3 DUP3 DIV SWAP1 POP SWAP3 SWAP2 POP POP JUMP JUMPDEST PUSH0 PUSH2 0x2CB DUP3 PUSH2 0x17A JUMP JUMPDEST SWAP2 POP PUSH2 0x2D6 DUP4 PUSH2 0x17A JUMP JUMPDEST SWAP3 POP DUP3 DUP3 SUB SWAP1 POP PUSH1 0xFF DUP2 GT ISZERO PUSH2 0x2EF JUMPI PUSH2 0x2EE PUSH2 0x203 JUMP JUMPDEST JUMPDEST SWAP3 SWAP2 POP POP JUMP INVALID LOG2 PUSH5 0x6970667358 0x22 SLT KECCAK256 0x2D PUSH29 0xD34892276539E8C8C9EF455140BFCB210D0479C7A4FDB2E487B9A20733 0xCA PUSH5 0x736F6C6343 STOP ADDMOD 0x1E STOP CALLER "
				},
				"gasEstimates": {
					"creation": {
						"codeDepositCost": "162200",
						"executionCost": "24470",
						"totalCost": "186670"
					},
					"external": {
						"add(uint8)": "infinite",
						"div(uint8)": "infinite",
						"get()": "2472",
						"sub(uint8)": "infinite"
					}
				},
				"methodIdentifiers": {
					"add(uint8)": "02067e6a",
					"div(uint8)": "7d952ba8",
					"get()": "6d4ce63c",
					"sub(uint8)": "fd2a42e6"
				}
			},
			"storageLayout": {
				"storage": [
					{
						"astId": 4,
						"contract": "solidity learning/contracts/calculator.sol:calculator",
						"label": "result",
						"offset": 0,
						"slot": "0",
						"type": "t_uint8"
					}
				],
				"types": {
					"t_uint8": {
						"encoding": "inplace",
						"label": "uint8",
						"numberOfBytes": "1"
					}
				}
			},
			"userdoc": {
				"kind": "user",
				"methods": {},
				"version": 1
			}
		}
	}
}